:020000040000FA
:0400000016EF02F005
:020004000000FA
:080008006EEC0EF00000100088
:100010008251E824F926300C310C320C330C340CAC
:10002000350C360C370C380C390C7C50E824F9268A
:10003000300C310C320C330C340C350C360C370CC4
:10004000380C390C7D50E824F926300C310C320C78
:10005000330C340C350C360C370C380C390C20535F
:10006000746172742D2A00005269676874004C65CF
:100070006674000052756E6E696E6700423A200029
:1000800020463A2000002020202020202020202070
:100090002020202020202020202020202020202060
:1000A00020483A20000020453A2000004C3A200029
:1000B00020523A2000004E6F20002046756C6C3AAA
:1000C0002000202020202020202020202020202050
:1000D00020202020202020204C6F636174696F6EE7
:1000E0003A2000004F7065726174696F6E20746908
:1000F0006D653A2020202020202020202020202054
:100100002020202020202020202020200000204807
:10011000616C663B200020456D70743A20004E6F84
:10012000206D6F72652062617272656C7300736519
:10013000636F6E6473004865696768743A202020B5
:10014000200074616C6C000073686F727400C76A81
:10015000180EC86E280EC66EC68AC5849EA6AEEF5F
:1001600000F09E961200C5809EA6B4EF00F09E9609
:10017000D40EC96E9EA6BAEF00F09E96C5BCD5EF10
:1001800000F07350C96E9EA6C3EF00F09E96C5BCEA
:10019000D5EF00F07450C96E9EA6CCEF00F09E968D
:1001A000C5BCD5EF00F0D6EF00F00000C5849EA6D8
:1001B000D7EF00F09E961200C5809EA6DDEF00F0FE
:1001C0009E963C0EC96E9EA6E3EF00F09E96C5BCBF
:1001D000FEEF00F07350C96E9EA6ECEF00F09E9605
:1001E000C5BCFEEF00F07450C96E9EA6F5EF00F09E
:1001F0009E96C5BCFEEF00F0FFEF00F00000C58446
:100200009EA600EF01F09E961200C5809EA606EF06
:1002100001F09E96D00EC96E9EA60CEF01F09E9640
:10022000C5BC27EF01F07350C96E9EA615EF01F013
:100230009E96C5BC27EF01F07450C96E9EA61EEFB6
:1002400001F09E96C5BC27EF01F028EF01F00000F9
:10025000C5849EA629EF01F09E961200C5809EA639
:100260002FEF01F09E96D40EC96E9EA635EF01F0D9
:100270009E96C5BCCAEF01F07350C96E9EA63EEFB4
:1002800001F09E96C5BCCAEF01F0C5829EA646EF5E
:1002900001F09E96D50EC96E9EA64CEF01F09E967B
:1002A000C5BCCAEF01F0C5869EA654EF01F09E962C
:1002B000C950756EC58AC5889EA65CEF01F09E96F2
:1002C000CBEF01F0C5809EA663EF01F09E963C0E39
:1002D000C96E9EA669EF01F09E96C5BCCAEF01F0FB
:1002E0007350C96E9EA672EF01F09E96C5BCCAEF10
:1002F00001F0C5829EA67AEF01F09E963D0EC96E72
:100300009EA680EF01F09E96C5BCCAEF01F0C5869F
:100310009EA688EF01F09E96C950756EC58AC58865
:100320009EA690EF01F09E96CBEF01F0C5809EA6B1
:1003300097EF01F09E96D00EC96E9EA69DEF01F03C
:100340009E96C5BCCAEF01F07350C96E9EA6A6EF7B
:1003500001F09E96C5BCCAEF01F0C5829EA6AEEF25
:1003600001F09E96D10EC96E9EA6B4EF01F09E9646
:10037000C5BCCAEF01F0C5869EA6BCEF01F09E96F3
:10038000C950756EC58AC5889EA6C4EF01F09E96B9
:10039000CBEF01F00000C5849EA6CCEF01F09E9645
:1003A0001200766E76380F0B300F776E76500F0B8B
:1003B000300F786E1200C5809EA6DCEF01F09E968D
:1003C000110EC96E9EA6E2EF01F09E96C5BCF6EF37
:1003D00001F0C5869EA6EAEF01F09E96C950706EA8
:1003E000C58AC5889EA6F2EF01F09E96C5849EA69A
:1003F000F7EF01F09E96120094889486896A8A6AC3
:100400008B6AA7EC00F0120094889486896A8A6A45
:100410008B6AA7EC00F0120094889486896A8A6A35
:100420008B6AA7EC00F087EC0CF01200F26A886B84
:10043000000E8E6F9E6FA26FA16FA06F9F6FA36F54
:10044000A46FA56FFF0E926EF20E936E956A896A85
:100450008A6A8B6A8C6A0F0EC112030E9C6F140E8F
:100460009D6FBEEC0EF087EC0EF042EF04F037EF1C
:1004700002F0BE6ABB6A8B8A82A63CEF02F05AEF9A
:1004800002F08B9A31EC0DF087EC0EF087EC0EF059
:1004900087EC0EF087EC0EF087EC0EF0BE6ABB6ABC
:1004A0008B8C82AE51EF02F065EF02F08B9C31EC49
:1004B0000DF0120082A63CEF02F082A63CEF02F0A3
:1004C00082A63CEF02F041EF02F082AE51EF02F063
:1004D00082AE51EF02F082AE51EF02F056EF02F021
:1004E00076EC03F022EC0FF0A00EBC6F22EC0FF0C4
:1004F000A8EC0BF0BB91BB43000E826F7C6E7D6E4F
:10050000BB51866F630E86658BEF02F0822B865F90
:10051000860782EF02F0090E866594EF02F07C2ACE
:10052000865F86078BEF02F0000E86659DEF02F076
:100530007D2A865F860794EF02F0B1EC0EF0E86A40
:10054000BB65B1EF02F0500EBB65ABEF02F0BB51E3
:10055000BC27B1EF02F0800E886FBB51885F8851D5
:10056000BC5F200EEAEC0EF0480EEAEC0EF03A0EFC
:10057000EAEC0EF0200EEAEC0EF0000E826F7C6EBC
:100580007D6EBC51866F630E8665CCEF02F0822BC8
:10059000865F8607C3EF02F0090E8665D5EF02F08D
:1005A0007C2A865F8607CCEF02F0000E8665DEEFC0
:1005B00002F07D2A865F8607D5EF02F0B1EC0EF0DF
:1005C00081B870EF02F087EC0EF076EF02F09492B3
:1005D00094948B828B841200ECEF02F0FBEC0CF015
:1005E000AAEC03F0080E736E62EC01F0000E826F4D
:1005F0007C6E7D6E7550866F630E866505EF03F029
:10060000822B865F8607FCEF02F0090E86650EEFEF
:1006100003F07C2A865F860705EF03F0000E8665EF
:1006200017EF03F07D2A865F86070EEF03F0B1EC2B
:100630000EF0AFEC0BF075C0B4F0460EB76FB66FAE
:10064000AAEC03F0080E736E62EC01F0000E826FEC
:100650007C6E7D6E7550866F630E866535EF03F098
:10066000822B865F86072CEF03F0090E86653EEF2E
:1006700003F07C2A865F860735EF03F0000E86655F
:1006800047EF03F07D2A865F86073EEF03F0B1EC6B
:100690000EF075C0B5F0AAEC03F0AFEC0BF0B5515D
:1006A000B46558EF03F0B46165EF03F070EF03F049
:1006B000B4C088F0B551885F88C0B8F0B851B65F53
:1006C000B727B65FB72770EF03F0B451B55FB5C079
:1006D000B8F0B851B75FB627B75FB62770EF03F031
:1006E00031EC0DF087EC0EF01DEF03F0000EF86E0C
:1006F000000EF76E5E0EF66E0800F5500FEC0FF070
:100700000B00F550FBE1FCEC01F0200E736E0A0EBD
:10071000746EB3EC00F0240E736E000E746EB3ECC6
:1007200000F0120087EC0EF022EC0FF0A8EC0BF0BA
:100730008FEC0EF08FEC0EF08FEC0EF08FEC0EF0D5
:100740008FEC0EF08FEC0EF08FEC0EF08FEC0EF0C5
:1007500092EF03F0736A700E746EDCEC00F0732A93
:10076000A00E746EDCEC00F0732A746ADCEC00F00E
:100770008FEC0EF01200AAEC03F0AFEC0BF08FEC54
:100780000EF08FEC0EF08FEC0EF08FEC0EF08FEC85
:100790000EF08FEC0EF08FEC0EF08FEC0EF0BBEF46
:1007A00003F08A6AFF0E936E946A9CEC0BF08FEC58
:1007B0000EF022EC0FF0000EF86E000EF76EAC0E8D
:1007C000F66E0800F5500FEC0FF00B00F550FBE152
:1007D000000E826F7C6E7D6EA351866F630E866500
:1007E000F7EF03F0822B865F8607EEEF03F0090E2A
:1007F000866500EF04F07C2A865F8607F7EF03F03A
:10080000000E866509EF04F07D2A865F860700EFFB
:1008100004F09DEC0EF0000EF86E000EF76EB00EB8
:10082000F66E0800F5500FEC0FF00B00F550FBE1F1
:10083000000E826F7C6E7D6EA451866F630E86659E
:1008400027EF04F0822B865F86071EEF04F0090E67
:10085000866530EF04F07C2A865F860727EF04F078
:10086000000E866539EF04F07D2A865F860730EF3B
:1008700004F09DEC0EF08B9081B08B80D7EF03F0ED
:10088000D7EF03F08F0E926EFE0E936E980E946E5D
:10089000070E966E896A8A6A8B6A8D6A000EF86EF8
:1008A000000EF76E5E0EF66E0800F5500FEC0FF0BE
:1008B0000B00F550FBE170EC04F0FBEC0CF022ECCB
:1008C0000FF08998CCEC0DF061EF04F08988A2A1BB
:1008D00079EC04F0A281070E9E6312006FEF05F021
:1008E00087EC0EF081A872EF04F081B875EF04F088
:1008F00012009E2B37EF0EF0BE2B80B0A12B80B2E2
:10090000A02B80A29F2B80B0A007BD8F96EC04F097
:100910001200BD9FBF2B80B4A12B80B6A02B80A658
:100920009F2B80B4A00796EC04F01200A5A1ABEFBA
:1009300004F0A5A3C7EF04F0A5A5E3EF04F0A5A775
:10094000FFEF04F0A5A91BEF05F0A5AB37EF05F00D
:10095000A5AD53EF05F0A581BDBFBD81BDA1A3C06D
:10096000A6F0A76B80B4A78580B6A78380A6A781D1
:1009700080B4A793BDB1A3C0A6F0A76B80B0A78534
:1009800080B2A78380A2A78180B0A7931200A5831D
:10099000BDBFBD83BDA3A3C0A8F0A96B80B4A985CA
:1009A00080B6A98380A6A98180B4A993BDB3A3C052
:1009B000A8F0A96B80B0A98580B2A98380A2A98183
:1009C00080B0A9931200A585BDBFBD85BDA5A3C0FC
:1009D000AAF0AB6B80B4AB8580B6AB8380A6AB814D
:1009E00080B4AB93BDB5A3C0AAF0AB6B80B0AB85B0
:1009F00080B2AB8380A2AB8180B0AB931200A5879D
:100A0000BDBFBD87BDA7A3C0ACF0AD6B80B4AD8545
:100A100080B6AD8380A6AD8180B4AD93BDB7A3C0D1
:100A2000ACF0AD6B80B0AD8580B2AD8380A2AD81FE
:100A300080B0AD931200A589BDBFBD89BDA9A3C07B
:100A4000AEF0AF6B80B4AF8580B6AF8380A6AF81C8
:100A500080B4AF93BDB9A3C0AEF0AF6B80B0AF852B
:100A600080B2AF8380A2AF8180B0AF931200A58B1C
:100A7000BDBFBD8BBDABA3C0B0F0B16B80B4B185C1
:100A800080B6B18380A6B18180B4B193BDBBA3C051
:100A9000B0F0B16B80B0B18580B2B18380A2B1817A
:100AA00080B0B1931200A58DBDBFBD8DBDADA3C0FB
:100AB000B2F0B36B80B4B38580B6B38380A6B38144
:100AC00080B4B393BDBDA3C0B2F0B36B80B0B385A7
:100AD00080B2B38380A2B38180B0B39312008B98AD
:100AE000E86ABE6EBB6E22EC0FF0000E826F7C6E69
:100AF0007D6EBD51866F630E866584EF05F0822B97
:100B0000865F86077BEF05F0090E86658DEF05F0A1
:100B10007C2A865F860784EF05F0000E866596EFD7
:100B200005F07D2A865F86078DEF05F0B1EC0EF0AB
:100B300070EC04F022EC0FF0000EF86E000EF76E71
:100B40007C0EF66E0800F5500FEC0FF00B00F55020
:100B5000FBE1000E826F7C6E7D6E9E51866F630E90
:100B60008665B8EF05F0822B865F8607AFEF05F04C
:100B7000090E8665C1EF05F07C2A865F8607B8EF0F
:100B800005F0000E8665CAEF05F07D2A865F8607B0
:100B9000C1EF05F0B1EC0EF0000EF86E000EF76E2E
:100BA000800EF66E0800F5500FEC0FF00B00F550BC
:100BB000FBE1000E826F7C6E7D6EA151866F630E2D
:100BC0008665E8EF05F0822B865F8607DFEF05F08C
:100BD000090E8665F1EF05F07C2A865F8607E8EF4F
:100BE00005F0000E8665FAEF05F07D2A865F860720
:100BF000F1EF05F0B1EC0EF0000EF86E000EF76E9E
:100C0000860EF66E0800F5500FEC0FF00B00F55055
:100C1000FBE1000E826F7C6E7D6EA051866F630ECD
:100C2000866518EF06F0822B865F86070FEF06F0C9
:100C3000090E866521EF06F07C2A865F860718EF8D
:100C400006F0000E86652AEF06F07D2A865F86078D
:100C500021EF06F0B1EC0EF0000EF86E000EF76E0C
:100C6000A60EF66E0800F5500FEC0FF00B00F550D5
:100C7000FBE1000E826F7C6E7D6E9F51866F630E6E
:100C8000866548EF06F0822B865F86073FEF06F009
:100C9000090E866551EF06F07C2A865F860748EFCD
:100CA00006F0000E86655AEF06F07D2A865F8607FD
:100CB00051EF06F0B1EC0EF087EC0EF087EC0EF081
:100CC00087EC0EF081A262EF06F022EC0FF0000E2E
:100CD000F86E000EF76EAC0EF66E0800F5500FECD5
:100CE0000FF00B00F550FBE1000E826F7C6E7D6E05
:100CF000A351866F630E866583EF06F0822B865FB5
:100D000086077AEF06F0090E86658CEF06F07C2ADE
:100D1000865F860783EF06F0000E866595EF06F086
:100D20007D2A865F86078CEF06F0B1EC0EF0B1EC01
:100D30000EF087EC0EF087EC0EF087EC0EF081A23F
:100D40009FEF06F0A5A189EF0BF022EC0FF0000E4B
:100D5000F86E000EF76EB60EF66E0800F5500FEC4A
:100D60000FF00B00F550FBE1310E0FEC0FF0000E11
:100D7000F86E000EF76EBA0EF66E0800F5500FEC26
:100D80000FF00B00F550FBE1A7B5CCEF06F0A7B3D1
:100D9000DBEF06F0EAEF06F0000EF86E000EF76EDD
:100DA000BA0EF66E0800F5500FEC0FF00B00F55080
:100DB000FBE1F7EF06F0000EF86E010EF76E0E0E77
:100DC000F66E0800F5500FEC0FF00B00F550FBE14C
:100DD000F7EF06F0000EF86E010EF76E160EF66EC7
:100DE0000800F5500FEC0FF00B00F550FBE1000E82
:100DF000F86E000EF76EC20EF66E0800F5500FEC9E
:100E00000FF00B00F550FBE1000E826F7C6E7D6EE3
:100E1000A651866F630E866513EF07F0822B865FFF
:100E200086070AEF07F0090E86651CEF07F07C2A9B
:100E3000865F860713EF07F0000E866525EF07F043
:100E40007D2A865F86071CEF07F0B1EC0EF070EC90
:100E500004F022EC0FF0000EF86E010EF76E360E65
:100E6000F66E0800F5500FEC0FF00B00F550FBE1AB
:100E7000BDB1000EF86E010EF76E420EF66E080060
:100E8000F5500FEC0FF00B00F550FBE1000EF86E83
:100E9000010EF76E480EF66E0800F5500FEC0FF0DD
:100EA0000B00F550FBE170EC04F0A5A389EF0BF00B
:100EB00022EC0FF0000EF86E000EF76EB60EF66E16
:100EC0000800F5500FEC0FF00B00F550FBE1320E6F
:100ED0000FEC0FF0000EF86E000EF76EBA0EF66E05
:100EE0000800F5500FEC0FF00B00F550FBE1A9B531
:100EF0007FEF07F0A9B38EEF07F09DEF07F0000E2C
:100F0000F86E000EF76EBA0EF66E0800F5500FEC94
:100F10000FF00B00F550FBE1AAEF07F0000EF86EA2
:100F2000010EF76E0E0EF66E0800F5500FEC0FF086
:100F30000B00F550FBE1AAEF07F0000EF86E010E72
:100F4000F76E160EF66E0800F5500FEC0FF00B0062
:100F5000F550FBE1000EF86E000EF76EC20EF66E55
:100F60000800F5500FEC0FF00B00F550FBE1000E00
:100F7000826F7C6E7D6EA851866F630E8665C6EFAC
:100F800007F0822B865F8607BDEF07F0090E8665A6
:100F9000CFEF07F07C2A865F8607C6EF07F0000ECA
:100FA0008665D8EF07F07D2A865F8607CFEF07F0CA
:100FB000B1EC0EF070EC04F022EC0FF0000EF86EC5
:100FC000010EF76E360EF66E0800F5500FEC0FF0BE
:100FD0000B00F550FBE1BDB3000EF86E010EF76E8D
:100FE000420EF66E0800F5500FEC0FF00B00F550B6
:100FF000FBE1000EF86E010EF76E480EF66E08006B
:10100000F5500FEC0FF00B00F550FBE170EC04F025
:10101000A5A589EF0BF022EC0FF0000EF86E000E84
:10102000F76EB60EF66E0800F5500FEC0FF00B00E1
:10103000F550FBE1330E0FEC0FF0000EF86E000ED2
:10104000F76EBA0EF66E0800F5500FEC0FF00B00BD
:10105000F550FBE1ABB532EF08F0ABB341EF08F070
:1010600050EF08F0000EF86E000EF76EBA0EF66E36
:101070000800F5500FEC0FF00B00F550FBE15DEFB1
:1010800008F0000EF86E010EF76E0E0EF66E0800F8
:10109000F5500FEC0FF00B00F550FBE15DEF08F0A1
:1010A000000EF86E010EF76E160EF66E0800F55083
:1010B0000FEC0FF00B00F550FBE1000EF86E000E88
:1010C000F76EC20EF66E0800F5500FEC0FF00B0035
:1010D000F550FBE1000E826F7C6E7D6EAA51866F2B
:1010E000630E866579EF08F0822B865F860770EFC6
:1010F00008F0090E866582EF08F07C2A865F860775
:1011000079EF08F0000E86658BEF08F07D2A865F88
:10111000860782EF08F0B1EC0EF070EC04F022ECE0
:101120000FF0000EF86E010EF76E360EF66E080028
:10113000F5500FEC0FF00B00F550FBE1BDB5000EC4
:10114000F86E010EF76E420EF66E0800F5500FECC9
:101150000FF00B00F550FBE1000EF86E010EF76E7C
:10116000480EF66E0800F5500FEC0FF00B00F5502E
:10117000FBE170EC04F0A5A789EF0BF022EC0FF077
:10118000000EF86E000EF76EB60EF66E0800F55003
:101190000FEC0FF00B00F550FBE1340E0FEC0FF0ED
:1011A000000EF86E000EF76EBA0EF66E0800F550DF
:1011B0000FEC0FF00B00F550FBE1ADB5E5EF08F0DB
:1011C000ADB3F4EF08F003EF09F0000EF86E000E77
:1011D000F76EBA0EF66E0800F5500FEC0FF00B002C
:1011E000F550FBE110EF09F0000EF86E010EF76EFE
:1011F0000E0EF66E0800F5500FEC0FF00B00F550D8
:10120000FBE110EF09F0000EF86E010EF76E160EFE
:10121000F66E0800F5500FEC0FF00B00F550FBE1F7
:10122000000EF86E000EF76EC20EF66E0800F55056
:101230000FEC0FF00B00F550FBE1000E826F7C6E9F
:101240007D6EAC51866F630E86652CEF09F0822BA4
:10125000865F860723EF09F0090E866535EF09F0F2
:101260007C2A865F86072CEF09F0000E86653EEF2C
:1012700009F07D2A865F860735EF09F0B1EC0EF0A4
:1012800070EC04F022EC0FF0000EF86E010EF76E19
:10129000360EF66E0800F5500FEC0FF00B00F5500F
:1012A000FBE1BDB7000EF86E010EF76E420EF66E52
:1012B0000800F5500FEC0FF00B00F550FBE1000EAD
:1012C000F86E010EF76E480EF66E0800F5500FEC42
:1012D0000FF00B00F550FBE170EC04F0A5A989EFCD
:1012E0000BF022EC0FF0000EF86E000EF76EB60E4B
:1012F000F66E0800F5500FEC0FF00B00F550FBE117
:10130000350E0FEC0FF0000EF86E000EF76EBA0EF1
:10131000F66E0800F5500FEC0FF00B00F550FBE1F6
:10132000AFB598EF09F0AFB3A7EF09F0B6EF09F04A
:10133000000EF86E000EF76EBA0EF66E0800F5504D
:101340000FEC0FF00B00F550FBE1C3EF09F0000EBE
:10135000F86E010EF76E0E0EF66E0800F5500FECEB
:101360000FF00B00F550FBE1C3EF09F0000EF86E33
:10137000010EF76E160EF66E0800F5500FEC0FF02A
:101380000B00F550FBE1000EF86E000EF76EC20E7A
:10139000F66E0800F5500FEC0FF00B00F550FBE176
:1013A000000E826F7C6E7D6EAE51866F630E866519
:1013B000DFEF09F0822B865F8607D6EF09F0090E72
:1013C0008665E8EF09F07C2A865F8607DFEF09F083
:1013D000000E8665F1EF09F07D2A865F8607E8EF4B
:1013E00009F0B1EC0EF070EC04F022EC0FF0000EFE
:1013F000F86E010EF76E360EF66E0800F5500FEC23
:101400000FF00B00F550FBE1BDB9000EF86E010EB8
:10141000F76E420EF66E0800F5500FEC0FF00B0061
:10142000F550FBE1000EF86E010EF76E480EF66EF9
:101430000800F5500FEC0FF00B00F550FBE170ECDD
:1014400004F0A5AB89EF0BF022EC0FF0000EF86E64
:10145000000EF76EB60EF66E0800F5500FEC0FF0AA
:101460000B00F550FBE1360E0FEC0FF0000EF86E9E
:10147000000EF76EBA0EF66E0800F5500FEC0FF086
:101480000B00F550FBE1B1B54BEF0AF0B1B35AEFE9
:101490000AF069EF0AF0000EF86E000EF76EBA0E51
:1014A000F66E0800F5500FEC0FF00B00F550FBE165
:1014B00076EF0AF0000EF86E010EF76E0E0EF66E65
:1014C0000800F5500FEC0FF00B00F550FBE176EF44
:1014D0000AF0000EF86E010EF76E160EF66E08009A
:1014E000F5500FEC0FF00B00F550FBE1000EF86E1D
:1014F000000EF76EC20EF66E0800F5500FEC0FF0FE
:101500000B00F550FBE1000E826F7C6E7D6EB051DA
:10151000866F630E866592EF0AF0822B865F8607E0
:1015200089EF0AF0090E86659BEF0AF07C2A865F38
:10153000860792EF0AF0000E8665A4EF0AF07D2A76
:10154000865F86079BEF0AF0B1EC0EF070EC04F0BA
:1015500022EC0FF0000EF86E010EF76E360EF66EEE
:101560000800F5500FEC0FF00B00F550FBE1BDBB90
:10157000000EF86E010EF76E420EF66E0800F55082
:101580000FEC0FF00B00F550FBE1000EF86E010EB2
:10159000F76E480EF66E0800F5500FEC0FF00B00DA
:1015A000F550FBE170EC04F0A5AD89EF0BF022ECF7
:1015B0000FF0000EF86E000EF76EB60EF66E080015
:1015C000F5500FEC0FF00B00F550FBE1370E0FEC70
:1015D0000FF0000EF86E000EF76EBA0EF66E0800F1
:1015E000F5500FEC0FF00B00F550FBE1B3B5FEEF3B
:1015F0000AF0B3B30DEF0BF01CEF0BF0000EF86E1A
:10160000000EF76EBA0EF66E0800F5500FEC0FF0F4
:101610000B00F550FBE129EF0BF0000EF86E010E08
:10162000F76E0E0EF66E0800F5500FEC0FF00B0083
:10163000F550FBE129EF0BF0000EF86E010EF76E8E
:10164000160EF66E0800F5500FEC0FF00B00F5507B
:10165000FBE1000EF86E000EF76EC20EF66E08008B
:10166000F5500FEC0FF00B00F550FBE1000E826F10
:101670007C6E7D6EB251866F630E866545EF0BF012
:10168000822B865F86073CEF0BF0090E86654EEFD6
:101690000BF07C2A865F860745EF0BF0000E86650F
:1016A00057EF0BF07D2A865F86074EEF0BF0B1EC0B
:1016B0000EF070EC04F022EC0FF0000EF86E010E4C
:1016C000F76E360EF66E0800F5500FEC0FF00B00BB
:1016D000F550FBE1BDBD000EF86E010EF76E420E37
:1016E000F66E0800F5500FEC0FF00B00F550FBE123
:1016F000000EF86E010EF76E480EF66E0800F550FB
:101700000FEC0FF00B00F550FBE170EC04F06FEF05
:1017100005F022EC0FF0000EF86E010EF76E1E0EB3
:10172000F66E0800F5500FEC0FF00B00F550FBE1E2
:1017300070EC04F06FEF05F0F16AF06AD09EF28C65
:10174000F28E9E6AA16AF288F088F18CF18812000C
:10175000290E736E2EEC01F075C0BBF0120022EC66
:101760000FF04D0EEAEC0EF0200EEAEC0EF0070E34
:10177000736E62EC01F0000E826F7C6E7D6E7550B0
:10178000866F630E8665CAEF0BF0822B865F860735
:10179000C1EF0BF0090E8665D3EF0BF07C2A865F54
:1017A0008607CAEF0BF0000E8665DCEF0BF07D2A92
:1017B000865F8607D3EF0BF0B1EC0EF0200EEAEC5B
:1017C0000EF04C0EEAEC0EF0200EEAEC0EF0080ED5
:1017D000736E62EC01F0000E826F7C6E7D6E755050
:1017E000866F630E8665FAEF0BF0822B865F8607A5
:1017F000F1EF0BF0090E866503EF0CF07C2A865F93
:101800008607FAEF0BF0000E86650CEF0CF07D2AD0
:10181000865F860703EF0CF0B1EC0EF0120022ECAD
:101820000FF0320E0FEC0FF0300E0FEC0FF0060E33
:10183000736E96EC01F07550D1EC01F077500FEC1F
:101840000FF078500FEC0FF02F0E0FEC0FF0050E8D
:10185000736E96EC01F07550D1EC01F077500FECFF
:101860000FF078500FEC0FF02F0E0FEC0FF0040E6E
:10187000736E96EC01F07550D1EC01F07750EAEC04
:101880000EF07850EAEC0EF0C00EFDEC0EF0020EF9
:10189000736E96EC01F07550D1EC01F07750EAECE4
:1018A0000EF07850EAEC0EF03A0EEAEC0EF022EC74
:1018B0000FF0000EF86E000EF76EE40EF66E0800E4
:1018C000F5500FEC0FF00B00F550FBE1C00EFDECF6
:1018D0000EF0010E736E96EC01F07550D1EC01F034
:1018E0007750EAEC0EF07850EAEC0EF03A0EEAECA3
:1018F0000EF0000E736E96EC01F07550D1EC01F015
:101900007750EAEC0EF07850EAEC0EF01200746AB0
:10191000736A05EC01F0732A05EC01F0732A05ECFB
:1019200001F0732A05EC01F0732A05EC01F0732A2B
:1019300005EC01F0732A05EC01F0000E736E800EC9
:10194000746E05EC01F0060E736E160E746E05ECE7
:1019500001F0050E736E030E746E05EC01F0040EBB
:10196000736E060E746E05EC01F0030E736E020EBC
:10197000746E05EC01F0020E736E010E746E05ECD0
:1019800001F0010E736E000E746E05EC01F0000E96
:10199000736E000E746E05EC01F01200100E806F75
:1019A0007A0E816F060E826F802FD8EF0CF0812F98
:1019B000DBEF0CF0822FD4EF0CF0DFEF0CF0000027
:1019C00000001200FF0E946E000E8B6E87EC0EF07E
:1019D000E6EF0CF08B8087EC0EF08B9087EC0EF02E
:1019E000E6EF0CF0F00E946E000E8B6E8250E8461F
:1019F0008B6EF6EF0CF08B90630ECB6E640EBB6EAD
:101A0000B76F640EBE6EB66F3C0EBD6EBA6E040E3E
:101A1000CA6E640E12000BEF0DF087EC0EF087EC2F
:101A20000EF087EC0EF087EC0EF087EC0EF087ECF2
:101A30000EF0640EE8CFBBFFE8CFBEFF87EC0EF0E0
:101A400087EC0EF087EC0EF087EC0EF087EC0EF0D2
:101A500087EC0EF01E0EE8CFBBFFE8CFBEFF0DEF08
:101A60000DF0B6C0BEFFB7C0BBFF12008B908B92CB
:101A700087EC0EF087EC0EF087EC0EF087EC0EF0A2
:101A800087EC0EF087EC0EF08B820DEC0DF087ECFE
:101A90000EF087EC0EF087EC0EF087EC0EF087EC82
:101AA0000EF087EC0EF08B9287EC0EF087EC0EF0C8
:101AB00087EC0EF087EC0EF087EC0EF087EC0EF062
:101AC0008B800DEC0DF087EC0EF087EC0EF087ECC0
:101AD0000EF087EC0EF087EC0EF087EC0EF036EF90
:101AE0000DF0948E94928B92000EF86E000EF76EAD
:101AF0005E0EF66E0800F5500FEC0FF00B00F5507F
:101B0000FBE18FEC0EF08B6B8B82B991030EE82E0C
:101B100087EF0DF08B9282BE90EF0DF08BEF0DF002
:101B200082AE9DEF0DF068EC0EF08B2BFF0E8B63F9
:101B300090EF0DF0B9819DEF0DF0B9B181EF0DF08F
:101B4000000E826F7C6E7D6E8B51866F630E866594
:101B5000AFEF0DF0822B865F8607A6EF0DF0090E22
:101B60008665B8EF0DF07C2A865F8607AFEF0DF033
:101B7000000E8665C1EF0DF07D2A865F8607B8EFFF
:101B80000DF022EC0FF0B1EC0EF0140E8B6512008C
:101B900087EC0EF081EF0DF0200EEAEC0EF0300E27
:101BA000EAEC0EF0300EEAEC0EF0300EEAEC0EF03D
:101BB0008492B9918FEC0EF0000E8B6F898A030E20
:101BC000E82EE0EF0DF0899A84B2E9EF0DF0E4EF32
:101BD0000DF084A2F7EF0DF08B9A68EC0EF08B2BD2
:101BE000FF0E8B63E9EF0DF0B9810DEF0EF0B9B187
:101BF000D8EF0DF01E0E87EC0EF08B6539EF02F07A
:101C00000DEF0EF022EC0FF0300EEAEC0EF0300E7D
:101C1000EAEC0EF0300EEAEC0EF08490B9938FEC03
:101C20000EF0000E8B6F898A030EE82E15EF0EF072
:101C3000899A84B01EEF0EF019EF0EF084A02CEFFD
:101C40000EF08B9868EC0EF08B2BFF0E8B631EEF63
:101C50000EF0B9832CEF0EF0B9B333EF0EF0140E83
:101C60008B6566EC04F0140E8B61A29112008494D3
:101C7000B9958FEC0EF0000E8B6F898A030EE82E5B
:101C80003FEF0EF0899A84B448EF0EF043EF0EF068
:101C900084A456EF0EF08B9E68EC0EF08B2BFF0E9B
:101CA0008B6348EF0EF0B98556EF0EF0B9B589EFAA
:101CB00004F087EC0EF08B9E140E8B657CEF04F025
:101CC00089EF04F0140E8B61D8EF0DF066EF0EF083
:101CD000120E8D6F8D2F6AEF0EF01200F2B275ECBE
:101CE0000EF0F0B282EC0EF01200F292A32BA32BB6
:101CF000A32BBAA17EEF0EF0BA911200A32BBA81EA
:101D00007DEF0EF0F092A42BA42BA42B1200140E46
:101D10007F6E8FEC0EF07F2E89EF0EF01200FF0E1B
:101D20007E6E97EC0EF07E2E91EF0EF01200500EAC
:101D3000816F812F99EF0EF01200D8907D507D2693
:101D40007C507C228251822308EC00F00FEC0FF0D3
:101D500015EC00F00FEC0FF022EC00F00FEC0FF0A0
:101D6000120008EC00F00FEC0FF015EC00F00FEC97
:0C1D70000FF022EC00F00FEC0FF012005E
:041D7C0038EC0FF040
:101D800038EC0FF038EC0FF08394300E33EC0FF09A
:101D90002AEC0FF02AEC0FF038EC0FF02AEC0FF0E1
:101DA000200E33EC0FF02AEC0FF038EC0FF0280E79
:101DB0000FEC0FF038EC0FF00F0E0FEC0FF038ECCB
:101DC0000FF0060E0FEC0FF038EC0FF022EC0FF0D6
:101DD000838412008384876F8751F00B040F836E16
:101DE000838638EC0FF083968739F00B040F836EEF
:101DF000838638EC0FF0839612008394886FF00B83
:101E0000836E838638EC0FF083968839F00B836EEF
:101E1000838638EC0FF0839638EC0FF01200836F56
:101E200033EC0FF02AEC0FF0833933EC0FF02AEC8F
:101E30000FF01200FF0E866F38EC0FF0862F1CEFAC
:101E40000FF012008394010E0FEC0FF038EC0FF03E
:101E500083841200838600008396230E846F842F70
:101E60002FEF0FF01200F00B83120F0983161200F0
:101E7000500E856F230E846F842F3CEF0FF0852F5B
:061E80003AEF0FF0120022
:020000040030CA
:0100010002FC
:010002001FDE
:010003001EDE
:010005008179
:010006008178
:010008000FE8
:01000900C036
:01000A000FE6
:01000B00E014
:01000C000FE4
:01000D0040B2
:00000001FF
